:1000000085C100000C94422F0C946D2F0C94982FF6
:100010000C94C32F0C94EE2F0C9419300C94443094
:100020000C946F30A4C10000A2C10000A0C1000068
:100030009EC100009CC100009AC1000098C1000050
:1000400096C1000094C1000092C1000090C1000060
:100050008EC100008CC100008AC100000C949A304F
:1000600086C100000C9496340C94CC3480C10000FE
:100070007EC100007CC100007AC1000078C1000090
:1000800076C1000074C1000072C1000070C10000A0
:100090000C9422350C9458356AC1000068C10000E8
:1000A00066C1000064C1000062C1000060C10000C0
:1000B0005EC100005CC100005AC1000058C10000D0
:1000C00056C1000054C100000C94461F0C94AE357C
:1000D0000C94E4354CC100000C943A360C94703604
:1000E00046C10000001D3A2774694E53E8F5D2CF8F
:1000F0009C81A6BBCDD0F7EAB9A4839E25381F0208
:10010000514C6B76879ABDA0F3EEC9D46F725548F7
:100110001B06213C4A57706D3E230419A2BF9885E7
:10012000D6CBECF1130E2934677A5D40FBE6C1DCD7
:100130008F92B5A8DEC3E4F9AAB7908D362B0C11C7
:10014000425F78659489AEB3E0FDDAC77C61465BB7
:100150000815322F5944637E2D30170AB1AC8B96A7
:10016000C5D8FFE2263B1C01524F6875CED3F4E997
:10017000BAA7809DEBF6D1CC9F82A5B8031E392487
:10018000776A4D50A1BC9B86D5C8EFF24954736E77
:100190003D20071A6C71564B1805223F8499BEA367
:1001A000F0EDCAD735280F12415C7B66DDC0E7FA57
:1001B000A9B4938EF8E5C2DF8C91B6AB100D2A3747
:1001C00064795E43B2AF8895C6DBFCE15A47607D37
:1001D0002E3314097F6245580B16312C978AADB027
:1001E000E3FED9C400000A0B02090C0D0E08070338
:1001F00004010000000000000000000000000000FA
:1002000000000000000000000000000000000000EE
:1002100012111000000000000000000000000000AB
:100220000000000000000000000001021020200873
:100230000810204010204080020102010804020141
:1002400001020408102040808040201008040201B0
:100250008004020180402010080402010804020109
:100260000102040810204080010204081020408090
:1002700005050505070508080808020202020A0A22
:100280000808040404040101010101010101030340
:10029000030303030303040707070C0C0C0C0C0CEB
:1002A0000C0C0202020206060606060606060B0BE8
:1002B0000B0B0B0B0B0B000020002300260029006A
:1002C0002C002F003200000100000301060109018B
:1002D00000002200250028002B002E0031003400F1
:1002E00002010000050108010B01000021002400AB
:1002F00027002A002D003000330001010000040116
:1003000007010A01F53481350D36993611241FBED7
:10031000CFEFD1E2DEBFCDBF00E00CBF15E0A0E023
:10032000B2E0EEE3F1E700E00BBF02C007900D92F0
:10033000AC31B107D9F729E0ACE1B5E001C01D92BD
:10034000AE3AB207E1F711E0C6E8D1E000E006C03E
:1003500021970109802FFE010E942937C238D10759
:1003600080E00807A9F70E94702B0C949D3848CEB6
:10037000611102C00C94DB326130E1F362E0FACF2C
:10038000662319F061E00C94173360E0FCCF089508
:10039000CF92DF92EF92FF92CF93882351F16A01BF
:1003A0007B01CFEFC80F20E030E0A901CB01B601FF
:1003B0000E94702C87FF11C0C701B60190580E949F
:1003C000E12C9B01AC016C2F70E090E080E0CF91BC
:1003D000FF90EF90DF90CF90B2C0C701B6010E94AE
:1003E000DC2C8C2FCF91FF90EF90DF90CF900C946E
:1003F000A131CF91FF90EF90DF90CF9008950F93B0
:100400001F938B019C0183E03695279517950795DF
:100410008A95D1F7045E1A4F462F477021E030E0ED
:10042000F90102C0EE0FFF1F4A95E2F7AF01F80194
:1004300020812423CB010196211102C090E080E0AD
:100440001F910F9108950F931F938B019C0183E0DF
:1004500036952795179507958A95D1F7677081E0AE
:1004600090E001C0880F6A95EAF7F801E45EFA4F60
:100470002081452B31F48095822380831F910F9139
:100480000895822BFACF2F923F924F925F926F92F4
:100490007F928F929F92AF92BF92CF92DF92EF9214
:1004A000FF920F931F93CF93DF93D62EC72E782EF4
:1004B000692E49015A01280161E08D2D0E94DB322D
:1004C000CD2DDC2D8E010F5F1F4FA8016D2D7C2DD2
:1004D000872D962DB8DF20E030E0A901C201B701D9
:1004E0000E94602E181664F4C201B7010E94E12C2C
:1004F0002B01C501B4010E94E12CA201CE0123D041
:10050000C801DF91CF911F910F91FF90EF90DF9085
:10051000CF90BF90AF909F908F907F906F905F90A3
:100520004F903F902F900895882341F08150682F7D
:1005300070E090E080E050E040E085CF0895862FA5
:10054000B9010C94A1319C01FC01EC51FE4FE491E6
:10055000E150E231E0F4F0E08827EE54FD4F8F4F98
:100560000C942937C402CB02CE02E502FA02C7027C
:100570000F031B031F0336034B03600377038C0336
:10058000C702A103B803CD0384B5806884BD60E0D1
:10059000822F0C94173384B58062F8CF809180004D
:1005A0008C7F82608093800080918100807E80615A
:1005B000682B609381005093870040938600809160
:1005C0008000806880938000E2CF809180008C7FE3
:1005D00082608093800080918100807E8061682BA2
:1005E0006093810050938700409386008091800043
:1005F0008062E8CF809180008C7F82608093800051
:1006000080918100807E8061682B6093810050938F
:10061000870040938600809180008860D3CF8091CE
:10062000B00080688093B0008091B100887F682B13
:100630006093B100ACCF8091B0008062F3CF809125
:1006400090008C7F82608093900080919100807EEA
:100650008061682B609391005093970040939600BF
:100660008091900080688093900091CF809190005D
:100670008C7F82608093900080919100807E806169
:10068000682B60939100509397004093960080915F
:1006900090008062E8CF809190008C7F8260809390
:1006A000900080919100807E8061682B6093910022
:1006B0005093970040939600809190008860D3CF2C
:1006C0008091A0008C7F82608093A0008091A10027
:1006D000807E8061682B6093A1005093A7004093B7
:1006E000A6008091A00080688093A00050CF8091E8
:1006F000A0008C7F82608093A0008091A100807E0A
:100700008061682B6093A1005093A7004093A600DE
:100710008091A0008062E8CF8091A0008C7F8260F1
:100720008093A0008091A100807E8061682B6093FF
:10073000A1005093A7004093A6008091A00088607C
:10074000D3CF809120018C7F8260809320018091A3
:100750002101807E8061682B6093210150932701E5
:1007600040932601809120018068809320010FCF63
:10077000809120018C7F82608093200180912101F3
:10078000807E8061682B6093210150932701409304
:100790002601809120018062E8CF809120018C7F2A
:1007A00082608093200180912101807E8061682B8E
:1007B00060932101509327014093260180912001ED
:1007C0008860D3CFCF93DF93EC0170E060E06C17CB
:1007D0007D070CF5072E000C880B990B0E940F2D3E
:1007E00020E030E0A9010E94F92B20E030E0A901CF
:1007F0000E94F92B20E030E040E450E40E94F92B05
:1008000020E030E040E450E40E94F82B0E94DC2C11
:100810006F5F7F4FDCCFDF91CF910895CF93DF9350
:1008200080913505909136050E944433EC0180910A
:100830003B0590913C05C6DF8091370590913805C6
:100840000E944433019771F48091390590913A05E3
:10085000219771F4019690933A0580933905DF91C1
:10086000CF9108958091390590913A05CD2B91F360
:100870000197F1CFCF93DF9380912D0590912E05B5
:100880000E944433EC0180913305909134059ADF46
:1008900080912F05909130050E944433019771F4A7
:1008A0008091310590913205219771F401969093D2
:1008B000320580933105DF91CF9108958091310504
:1008C00090913205CD2B91F30197F1CFCF93DF9328
:1008D00080912505909126050E944433EC0180917A
:1008E0002B0590912C056EDF8091270590912805AE
:1008F0000E944433019771F48091290590912A0553
:10090000219771F4019690932A0580932905DF9130
:10091000CF9108958091290590912A05CD2B91F3CF
:100920000197F1CFCF93DF9380912F059091300500
:100930000E944433EC01809133059091340542DFED
:1009400080912D0590912E050E944433019771F4FA
:100950008091310590913205CD2B71F401969093E1
:10096000320580933105DF91CF9108958091310553
:1009700090913205219791F30197F1CFCF93DF93B7
:1009800080912705909128050E944433EC018091C5
:100990002B0590912C0516DF809125059091260559
:1009A0000E944433019771F48091290590912A05A2
:1009B000CD2B71F4019690932A0580932905DF9140
:1009C000CF9108958091290590912A05219791F35F
:1009D0000197F1CFCF93DF93809137059091380540
:1009E0000E944433EC0180913B0590913C05EADE86
:1009F00080913505909136050E944433019771F43A
:100A00008091390590913A05CD2B71F40196909320
:100A10003A0580933905DF91CF910895809139058A
:100A200090913A05219791F30197F1CF0F931F937E
:100A3000CF93DF938C01EC0183E0CC0FDD1F8A950F
:100A4000E1F7CB5DDA4F798368835B834A838881E2
:100A5000998160E00E94DB328A819B8160E00E9484
:100A6000DB328881998161E00E9417338A819B8102
:100A700061E00E94173301301105D9F102301105F0
:100A800009F466C0012B09F092C080912505909170
:100A9000260502978431910530F582559C4FFC0163
:100AA0008081082E000C990B41E050E06EEB74E061
:100AB0000E94C82E809127059091280502978431C5
:100AC0009105A0F482559C4FFC018081082E000CFA
:100AD000990B41E050E066E674E0DF91CF911F9101
:100AE0000F910C94C82E8FEF9FEFDECF8FEF9FEF0B
:100AF000F0CF80912D0590912E05029784319105BC
:100B000008F582559C4FFC018081082E000C990B42
:100B100041E050E062E974E00E94C82E80912F0508
:100B20009091300502978431910578F482559C4F5D
:100B3000FC018081082E000C990B41E050E06AE333
:100B400074E0CBCF8FEF9FEFE3CF8FEF9FEFF5CF29
:100B5000809135059091360502978431910508F50D
:100B600082559C4FFC018081082E000C990B41E0BE
:100B700050E06AEE74E00E94C82E80913705909193
:100B8000380502978431910578F482559C4FFC0119
:100B90008081082E000C990B41E050E06EE074E07B
:100BA0009CCF8FEF9FEFE3CF8FEF9FEFF5CFDF91DC
:100BB000CF911F910F91089523E0880F991F2A95D7
:100BC000E1F7FC01EB5DFA4F8481958108954F9226
:100BD0005F926F927F928F929F92AF92BF92CF92CD
:100BE000DF92EF92FF92CF93DF9300D01F92CDB7A9
:100BF000DEB74B015C0169017A010E94FF11882375
:100C0000E9F080909C0990909D09A0909E09B09079
:100C10009F09C501B4010F900F900F900F90DF91C5
:100C2000CF91FF90EF90DF90CF90BF90AF909F90CB
:100C30008F907F906F905F904F900895C701B6019D
:100C40000E94FF118111DDCFC501B4010E94BA11CC
:100C50008111D7CFC701B6010E94BA118111D9CF36
:100C600020E030E0A901C701B6010E94702C87FF87
:100C70004CC0C701B6010E945D2C2B013C01A301B1
:100C80009201C701B6010E94702C882309F44CC060
:100C9000A7019601C501B4010E94742C2B013C01EF
:100CA000E89477F820E030E040E05FE3C301B20170
:100CB0000E94F92B0E944A2D9B01AC01C301B20195
:100CC0000E94F82B9B01AC015F7729833A834B8309
:100CD0005C8320E030E040E054E3C301B2010E94B5
:100CE000642E9B01AC0169817A818B819C810E9479
:100CF000602E1816CCF020E030E0A901C501B40147
:100D00000E94642E4B015C0184CFC701B6010E9492
:100D10004A2D2B013C0120E030E0A901C701B601BA
:100D20000E94702C8111ABCFA7019601C501B401BF
:100D30000F900F900F900F90DF91CF91FF90EF9059
:100D4000DF90CF90BF90AF909F908F907F906F90EB
:100D50005F904F900C94642DCF92DF92EF92FF92B0
:100D60006B017C019F7720E030E040E859E50E946C
:100D7000702C87FF2BC020E030E040E05FE3C7012C
:100D8000B6010E94602E87FD0EC020E030E040E0FA
:100D90005FE3C701B6010E94F92BFF90EF90DF904F
:100DA000CF900C944A2D20E030E040E05FEBC7018B
:100DB000B6010E94602E181684F420E030E0A901EC
:100DC000C701B6010E94642E6B017C01C701B60108
:100DD000FF90EF90DF90CF90089520E030E040E06A
:100DE0005FE3C701B6010E94F82BFF90EF90DF9000
:100DF000CF900C945D2C4F925F926F927F928F9266
:100E00009F92AF92BF92CF92DF92EF92FF920F9399
:100E10001F93CF93DF93CDB7DEB72E970FB6F8941D
:100E2000DEBF0FBECDBFC0903A03D0903B03E09031
:100E30003C03F0903D03A70196016091F808709182
:100E4000F9088091FA089091FB080E94702C882381
:100E500041F0C092F808D092F908E092FA08F092B6
:100E6000FB0890E080E0A8DE6C01990FEE08FF0817
:100E7000C0928C09D0928D09E0928E09F0928F0970
:100E800060919203709193038091940390919503E4
:100E90000E940F2D20E030E040E85FE20E94642EC7
:100EA0004B015C01C701B6010E940F2D9B01AC01F3
:100EB000C501B4010E94642E6B017C01C0926809D7
:100EC000D0926909E0926A09F0926B0920E030E063
:100ED000A9010E94702C20E030E040E85FEB87FD24
:100EE00021C020E030E0A901C701B6010E94602EB8
:100EF00020E030E040E85FE31816A4F020E030E0A6
:100F0000A901C701B6010E94702C20E030E0A901C0
:100F1000882341F020919C0930919D0940919E09C0
:100F200050919F0960913E0370913F03809140036F
:100F3000909141030E94702C87FF53C1209132038E
:100F40003091330340913403509135038090420334
:100F500090904303A0904403B0904503C701B601AD
:100F600036DE9B01AC01C501B4010E94642E609382
:100F7000840970938509809386099093870920914D
:100F80006C0930916D0940916E0950916F09609123
:100F9000FE027091FF0280910003909101030E9474
:100FA000642E69837A838B839C83C090F602D090F1
:100FB000F702E090F802F090F9029B01AC01C70142
:100FC000B6010E94702C87FD12C0C701B6010E94B5
:100FD000FF1181110CC08091F6029091F702A0914F
:100FE000F802B091F90289839A83AB83BC83C090E5
:100FF0008409D0908509E0908609F0908709809057
:101000004E0390904F03A0905003B09051038091F5
:1010100066098823C1F0C0925609D0925709E09220
:101020005809F0925909A5019401C701B6010E941F
:10103000602E87FDDFC08092560990925709A092DA
:101040005809B092590920E030E0A90160914603A7
:101050007091470380914803909149030E94702C3E
:10106000811104C0809164098823C1F0C09256099F
:10107000D0925709E0925809F0925909A5019401BC
:10108000C701B6010E94602E87FDCDC0809256092F
:1010900090925709A0925809B09259094090560968
:1010A000509057096090580970905909A501940112
:1010B000C301B2010E94602E87FDCEC08092560906
:1010C00090925709A0925809B09259090091560977
:1010D00010915709909158099987A0915909AD83AA
:1010E00040905603509057036090580370905903F6
:1010F0009201A301B801892F9A2F0E94602E181621
:10110000A4F040905A0350905B0360905C03709091
:101110005D039201A301B80189859D810E94702C15
:1011200087FD03C0280169847D8020E030E0A901AB
:1011300069817A818B819C810E94702C20E030E053
:1011400040E855E2882319F020E030E0A9016981E8
:101150007A818B819C810E94F92B9B01AC0160E01C
:1011600070E080E89FE30E94742C4B015C019201C7
:10117000A301C701B6010E94F82BA50194010E94AA
:10118000642E6D837E838F8398872091EE02309149
:10119000EF024091F0025091F1020E94642E6B0127
:1011A0007C01C0928009D0928109E0928209F0927C
:1011B00083098090E6029090E702A090E802B09048
:1011C000E902A50194010E94602E18160CF066C079
:1011D0008092800990928109A0928209B09283093D
:1011E0006DC020912E0330912F0340913003509118
:1011F0003103ACCE4090520350905303609054039F
:1012000070905503A7019601C301B2010E94602EA0
:1012100087FD19CF4092560950925709609258099C
:101220007092590910CF4090520350905303609030
:10123000540370905503A7019601C301B2010E94A7
:10124000602E87FD2BCF409256095092570960922D
:1012500058097092590922CF8091520390915303FB
:10126000A0915403B09155038D839E83AF83B887BB
:101270009C01AD01C301B2010E94702C18160CF440
:1012800025CF8D819E81AF81B8858093560990933B
:101290005709A0935809B093590918CF8090DE02DE
:1012A0009090DF02A090E002B090E102A5019401CD
:1012B000C701B6010E94702C87FD8ACFC09036030B
:1012C000D0903703E0903803F0903903A7019601DE
:1012D00060910209709103098091040990910509B8
:1012E0000E94702C882341F0C0920209D092030919
:1012F000E0920409F092050981E090E05DDC9A83B8
:1013000089836091960370919703809198039091DF
:1013100099030E940F2D20E030E040E85FE20E9438
:10132000642E6B017C0129813A81B901330F880B4E
:10133000990B0E940F2D9B01AC01C701B6010E94C1
:10134000642E6B017C01C0927409D0927509E09201
:101350007609F092770920E030E0A9010E94702C14
:1013600020E030E040E85FEB87FD21C020E030E086
:10137000A901C701B6010E94602E20E030E040E8DC
:101380005FE31816A4F020E030E0A901C701B60120
:101390000E94702C20E030E0A901882341F02091C8
:1013A0009C0930919D0940919E0950919F0960913F
:1013B0005E0370915F0380916003909161030E94CE
:1013C000702C87FFBEC020912A0330912B034091DF
:1013D0002C0350912D038090620390906303A090A2
:1013E0006403B0906503C701B601F1DB9B01AC015A
:1013F000C501B4010E94642E69837A838B839C8328
:10140000209178093091790940917A0950917B09AE
:10141000609102037091030380910403909105038E
:101420000E94642E4B015C01C090FA02D090FB0236
:10143000E090FC02F090FD02AC019B01C701B601F7
:101440000E94702C87FD0DC0C701B601D8D781114D
:1014500008C08090FA029090FB02A090FC02B0902D
:10146000FD02C0906E03D0906F03E0907003F09087
:101470007103809167098823E1F089819A81AB81AA
:10148000BC8180935A0990935B09A0935C09B09347
:101490005D09A7019601BC01CD010E94602E87FD68
:1014A00059C0C0925A09D0925B09E0925C09F0924F
:1014B0005D0920E030E0A901609166037091670347
:1014C00080916803909169030E94702C811104C07F
:1014D000809165098823E1F089819A81AB81BC8183
:1014E00080935A0990935B09A0935C09B0935D09BE
:1014F000A7019601BC01CD010E94602E87FD45C069
:10150000C0925A09D0925B09E0925C09F0925D09A1
:1015100040905A0950905B0960905C0970905D0999
:10152000A7019601C301B2010E94602E87FD48C049
:10153000C0925A09D0925B09E0925C09F0925D0971
:1015400050C02091260330912703409128035091E9
:10155000290341CF4090720350907303609074034D
:101560007090750329813A814B815C81C301B2017E
:101570000E94602E87FD9DCF40925A0950925B09D0
:1015800060925C0970925D0994CF40907203509014
:101590007303609074037090750329813A814B81C5
:1015A0005C81C301B2010E94602E87FDB1CF4092E1
:1015B0005A0950925B0960925C0970925D09A8CF4C
:1015C000C0907203D0907303E0907403F0907503A1
:1015D000A7019601C301B2010E94702C18160CF0ED
:1015E000A7CF40905A0950905B0960905C097090B9
:1015F0005D09C0907603D0907703E0907803F09077
:1016000079039601A701B201C3010E94602E18164A
:1016100094F0C0907A03D0907B03E0907C03F0902C
:101620007D039601A701B201C3010E94702C87FDC2
:1016300002C06201730120E030E0A901C501B401DC
:101640000E94702C20E030E040E855E2882319F039
:1016500020E030E0A901C501B4010E94F92B9B01F3
:10166000AC0160E070E080E89FE30E94742C4B01C5
:101670005C019601A70169817A818B819C810E941E
:10168000F82BA50194010E94642E69877A878B87C5
:101690009C872091F2023091F3024091F402509124
:1016A000F5020E94642E6B017C01C0928809D092E1
:1016B0008909E0928A09F0928B098090EA02909061
:1016C000EB02A090EC02B090ED02A50194010E9403
:1016D000602E18164CF48092880990928909A09285
:1016E0008A09B0928B0910C08090E2029090E302C8
:1016F000A090E402B090E502A5019401C701B601F3
:101700000E94702C87FDE7CF2091880930918909CC
:1017100040918A0950918B096091D2027091D30255
:101720008091D4029091D5020E94F82B2091BE02A4
:101730003091BF024091C0025091C1020E94642EBC
:101740006B017C0129813A814B815C816091CE02E1
:101750007091CF028091D0029091D1020E94F82B1B
:101760002091BA023091BB024091BC025091BD025F
:101770000E94642E9B01AC01C701B6010E94F92BA7
:101780006B017C0120918409309185094091860983
:10179000509187096091D6027091D7028091D8024A
:1017A0009091D9020E94F82B2091C2023091C3027D
:1017B0004091C4025091C5020E94642E9B01AC016D
:1017C000C701B6010E94F92B6B017C0120918009B1
:1017D0003091810940918209509183096091DA0228
:1017E0007091DB028091DC029091DD020E94F82B67
:1017F0002091C6023091C7024091C8025091C9029F
:101800000E94642E9B01AC01C701B6010E94F92B16
:101810005B016C01E0907E03F0907F037090800389
:10182000609081039B01AC01B701872D962D0E942A
:10183000702C87FD14C0E0908203F09083037090B9
:101840008403609085039501A601B701872D962D2D
:101850000E94602E18161CF075017C2C6D2C20E067
:1018600030E0A901B701872D962D0E94702C812CA4
:10187000912C20E8A22E2FEBB22E87FD25C020E070
:1018800030E0A901B701872D962D0E94602E812C92
:10189000912C90E8A92E9FE3B92E1816ACF020E009
:1018A00030E0A901B701872D962D0E94702C812C64
:1018B000912C5401882341F080909C0990909D09BF
:1018C000A0909E09B0909F09A501940160918603A4
:1018D0007091870380918803909189030E94702CF6
:1018E00087FF3BC1D0901A03C0901B0350901C038C
:1018F00040901D039701472D562D6D2D7C2D852D74
:10190000942D0E94702C87FD16C0D0901E03C090AD
:101910001F0350902003409021039701472D562D1F
:101920006D2D7C2D852D942D0E94602E18161CF097
:10193000DE2CCF2C230120912203309123034091F0
:101940002403509125036D2D7C2D852D942D0E940F
:10195000642E6B017C016091EE087091EF0880911C
:10196000F0089091F1080E94FF019E878D87909367
:10197000ED088093EC0820918A0330918B0340910D
:101980008C0350918D03C701B6010E94642E6B0138
:101990007C0120E030E04FE753E40E94702C87FF89
:1019A0000EC120E030E0A901C701B6010E94602EFF
:1019B00018160CF00BC1B701A6018D859E850E94FB
:1019C000C801A501940160918E0370918F038091ED
:1019D0009003909191030E94702C87FFFBC0C090F0
:1019E0000A03D0900B03E0900C03F0900D03C701A5
:1019F000B601B2D94B015C0120E030E040E853E48D
:101A00000E94702C6FEF87FF0EC020E030E0A9012C
:101A1000C501B4010E94602E60E087FD04C0C501CD
:101A2000B4010E94E12C87E00E94C00191E09D87F3
:101A300020E030E0A901C701B6010E94702C81119D
:101A40001D866D8588E00E94C00180918809909173
:101A50008909A0918A09B0918B098093B908909364
:101A6000BA08A093BB08B093BC0889819A81AB8166
:101A7000BC818093B5089093B608A093B708B09343
:101A8000B8088091800990918109A0918209B09154
:101A900083098093B1089093B208A093B308B093E0
:101AA000B4088091840990918509A0918609B0912C
:101AB00087098093AD089093AE08A093AF08B093C8
:101AC000B00810926609C0904603D0904703E0909A
:101AD0004803F090490320E030E0A901C701B601B6
:101AE0000E94702C811190C020914A0330914B03C9
:101AF00040914C0350914D036D817E818F8198857B
:101B00000E94642E2091560930915709409158093E
:101B1000509159090E94F92B4B015C0180925609A2
:101B200090925709A0925809B092590940904E03DB
:101B300050904F036090500370905103A3019201A5
:101B40000E94602E87FD4FC040925609509257095F
:101B5000609258097092590957C0D0900E03C090F6
:101B60000F0350901003409011039701472D562DFD
:101B70006D2D7C2D852D942D0E94702C87FD16C017
:101B8000D0901203C090130350901403409015039B
:101B90009701472D562D6D2D7C2D852D942D0E945E
:101BA000602E18161CF0DE2CCF2C2301209116037A
:101BB000309117034091180350911903C4CEC12CE2
:101BC000D12C8FE7E82E83E4F82EF5CEC12CD12C52
:101BD0007601F1CEC0900603D0900703E090080391
:101BE000F090090304CF409052035090530360904B
:101BF000540370905503A3019201C501B4010E94E2
:101C0000702C18160CF0A0CF20E030E0A901C7011D
:101C1000B6010E94602E181624F481E080936409B6
:101C200016C020E030E0A901C701B6010E94702C67
:101C300087FF02C08FEFF2CF20E030E0A901C7019B
:101C4000B6010E94702C81114EC01092640910924E
:101C50006709C0906603D0906703E0906803F09036
:101C6000690320E030E0A901C701B6010E94702C91
:101C700081114BC020916A0330916B0340916C033A
:101C800050916D0369857A858B859C850E94642EB1
:101C900020915A0930915B0940915C0950915D098E
:101CA0000E94F92B4B015C0180925A0990925B09CA
:101CB000A0925C09B0925D0940906E0350906F0352
:101CC0006090700370907103A30192010E94602ED6
:101CD00087FD0BC040925A0950925B0960925C09E3
:101CE00070925D0912C082E099CF409072035090CB
:101CF00073036090740370907503A3019201C50192
:101D0000B4010E94702C18162CF720E030E0A901D5
:101D1000C701B6010E94602E181624F481E080935A
:101D2000650916C020E030E0A901C701B6010E9494
:101D3000702C87FF02C08FEFF2CF20E030E0A901C6
:101D4000C701B6010E94702C811195C010926509DF
:101D500081E090E00E94D01E4091D3085091D408B9
:101D60006091D5087091D60890E080E00E94CC1E6A
:101D70008090DF089090E008A090E108B090E20821
:101D800020E030E040E85FEBC501B4010E94702C18
:101D9000882331F1C090D308D090D408E090D508C2
:101DA000F090D608A7019601C501B4010E94F82B56
:101DB0004B015C0120E030E040E054E3C701B60194
:101DC0000E94642E9B01AC01C501B4010E94602EEB
:101DD000181634F082EC93E09093BE088093BD080F
:101DE0008091E308882331F082EC93E09093BE0861
:101DF0008093BD086091D7087091D8088091D90868
:101E00009091DA086F5F7F4F8F4F9F4F6093D70895
:101E10007093D8088093D9089093DA080E940D2D0A
:101E20009B01AC016091DB087091DC088091DD08BA
:101E30009091DE080E94642E6093D3087093D408BA
:101E40008093D5089093D6082E960FB6F894DEBFEF
:101E50000FBECDBFDF91CF911F910F91FF90EF90FB
:101E6000DF90CF90BF90AF909F908F907F906F90BA
:101E70005F904F90089582E052CF7F928F929F9211
:101E8000AF92BF92CF92DF92EF92FF920F931F9388
:101E9000CF93DF9384E090E036D28091A0099091B7
:101EA000A109A091A209B091A309EAEBF2E084A3F1
:101EB00095A3A6A3B7A380A791A7A2A7B3A7409174
:101EC00098095091990960919A0970919B0944A7CA
:101ED00055A766A777A740AB51AB62AB73AB4093F6
:101EE0004E0350934F0360935003709351038093BC
:101EF000520390935303A0935403B093550340931C
:101F0000560350935703609358037093590380937B
:101F10005A0390935B03A0935C03B0935D034093DB
:101F20006E0350936F0360937003709371038093FB
:101F3000720390937303A0937403B093750340935B
:101F400076035093770360937803709379038093BB
:101F50007A0390937B03A0937C03B0937D03ADEB56
:101F6000B8E040E050E060E87FEB92964D935D93DF
:101F70006D937C9395978AE0C82E87EDD82E83EADF
:101F8000E82E8BE3F82E5E96CD92DD92ED92FC92D8
:101F9000919741E252EE62E375E814964D935D939A
:101FA0006D937C93179743E950E36BE67BEC1896AF
:101FB0004D935D936D937C931B974BE959E268EFCA
:101FC00072ED1C964D935D936D937C931F9745E046
:101FD00057E66AE971EB50964D935D936D937C9350
:101FE0005397CDE6D5E01396DC93CE931297E1E5B7
:101FF000F5E0F983E88386ED93E091838083938312
:102000008283958384839783868391878087938750
:1020100082879587848797878687918B808B938B20
:10202000828B958B848B978B868B918F808F938FF0
:10203000828F81ED98E09D838C8381EC98E09B8377
:102040008A8383ED98E09F838E83E7E4F5E08AE05E
:10205000EF0119928A95E9F7EDE3F5E05596FC93C7
:10206000EE93549783E190E09183808384E992E03A
:10207000938382838EE692E0958384838AE192E063
:102080009783868386E092E091878087C4EED8E0CC
:102090001E8680913A0390913B03A0913C03B0913E
:1020A0003D038C8B9D8BAE8BBF8B812C912C54016F
:1020B00083948F86988AA98ABA8A43E050E062E0C6
:1020C00070E090E080E00E941605772473947B8A8C
:1020D00008E619E0F801C482D582E682F78210860C
:1020E000118612861386188E8091360390913703DD
:1020F000A0913803B09139038E8F9F8FA8A3B9A305
:10210000898E9A8EAB8EBC8E45E150E064E170E022
:1021100081E090E00E9416057D8EF801C08AD18A88
:10212000E28AF38A148A158A168A178A188222E3A9
:102130002AAB93E39BAB84E38CAB85E38DAB86E367
:102140008EAB87E38FAB88E388AF89E389AF81E308
:102150008AAF30E33BAF8CAF8DAF8EAF2FAF8093A4
:1021600024099093250986E199E09F838E8385E079
:1021700090E0A0E0B0E08A879B87AC87BD871D8296
:1021800089829A82AB82BC82E12CF12C8701A80162
:10219000970165E070E080E090E00E94430299873B
:1021A00088876A857B858C859D850E94FF0199873C
:1021B00088870E94C7017D82109246098092470954
:1021C00090924809A0924909B0924A0961E087E0DB
:1021D0000E94B80170924B0910924E0980924F09EB
:1021E00090925009A0925109B092520961E088E0A2
:1021F0000E94B80170925309709266097092670943
:10220000DF91CF911F910F91FF90EF90DF90CF90D2
:10221000BF90AF909F908F907F9008958091F2082B
:10222000811103C081E08093F2088091FC08811144
:1022300003C081E08093FC088091E408811136C0DE
:1022400081E08093E4088091E5089091E608A091F0
:10225000E708B091E8080197A105B10539F580912B
:10226000E908882319F16091EE087091EF088091D8
:10227000F0089091F1080E94FF019093ED0880937F
:10228000EC0840E050E0BA010E94C8016091EE08FD
:102290007091EF088091F0089091F1080E94FF0181
:1022A0009093ED088093EC080E9494028091460977
:1022B000811103C081E08093460980914E0981110C
:1022C00003C081E080934E09089560E070E080E8EB
:1022D0009FE7089560E070E080E89FE7089560E080
:1022E00070E080E89FEF089560E070E080E89FEF85
:1022F000089560E070E080EC9FEF089560E070E08A
:1023000080EC9FEF0895F5DF60939C0970939D0921
:1023100080939E0990939F09F1DF609390097093D9
:1023200091098093920990939309CFDF6093980964
:102330007093990980939A0990939B09CBDF6093DE
:102340009409709395098093960990939709C7DF34
:102350006093A0097093A1098093A2099093A309A7
:10236000C3DF6093A4097093A5098093A609909395
:10237000A7090895CF92DF92EF92FF92CF936B015E
:102380007C01AC019B016091980970919909809141
:102390009A0990919B090E94702CC1E0882371F0EA
:1023A000A70196016091A0097091A1098091A209ED
:1023B0009091A3090E94702C8111C0E08C2FCF91C5
:1023C000FF90EF90DF90CF9008950F931F938B01B4
:1023D0009C010027112720783F770115110520481F
:1023E0003F4749F4AB01BC016F77772781E0452B6C
:1023F000462B472B09F480E01F910F910895E5CFFC
:10240000EF92FF920F931F93CF93DF93EA01F901AD
:10241000DC011496ED90FC90159712964D915C910D
:1024200013974E0D5F1D2881398118960D911C91CF
:1024300019970217130730F00D911C911197012B7A
:1024400009F441C08A01021B130BDC0118968D911F
:102450009C918E199F09800F911F86179707DCF1B9
:10246000C901860F971F8417950778F471836083DD
:102470003383228315821482178216828881998180
:10248000680F791F7983688316C0118300833383B3
:102490002283601B710B7583648390E080E01616C5
:1024A000170614F49E2D8F2D96838783D701A60FD0
:1024B000B71FB983A88380E0DF91CF911F910F915F
:1024C000FF90EF90089518968D919C91821B930B2D
:1024D000861797075CF681E0EFCFCF92DF92EF92FD
:1024E000FF92CF93DF936B0184E4869FE001879F87
:1024F000D00D1124C758DA4F8AA99BA9009721F063
:102500000E94FB371BAA1AAA84E48C9DF0018D9DC2
:10251000F00D1124E758FA4F86A997A9009711F0FA
:102520000E94FB3784E48C9DF0018D9DF00D1124F9
:10253000E758FA4F138A128A168A178A108E118E5C
:10254000128E138E148E158E168E178E10A211A257
:1025500081E090E093A382A315A214A216A217A271
:1025600010A611A613A612A615A614A616A617A69F
:1025700010AA11AA13AA12AA15AA14AA17AA16AA6F
:1025800011AE10AE12AE13AE14AE15AEDF01DE9674
:102590001D921D921D921C921397EE5BFF4F1182AC
:1025A0001082DF91CF91FF90EF90DF90CF90089550
:1025B000CF93DF93FB01DC016D917C91DB011696DB
:1025C000CD91DC918081918123E0880F991F2A951C
:1025D000E1F7AA81BB81A80FB91F8D919C9111973A
:1025E00024853585220F331FEB016A817B81EB0146
:1025F000C20FD31F0990D881C02D14962D913C9104
:1026000061E070E0232B11F062E070E0C69F900162
:10261000C79F300DD69F300D1124A085B1852A9F0C
:10262000B0012B9F700D3A9F700D1124A481B581CC
:102630002A9FF0012B9FF00D3A9FF00D11248E0F71
:102640009F1FFA019183808373836283DF91CF910F
:1026500008952F923F924F925F926F927F928F9246
:102660009F92AF92BF92CF92DF92EF92FF920F9321
:102670001F93CF93DF9300D000D0CDB7DEB7DC013E
:102680001496ED91FC910190F081E02D808591856B
:102690009A838983A281B381BC83AB83FB01819040
:1026A0009190A190B190C12CD12C7601C814D9047D
:1026B000EA04FB04CCF026960FB6F894DEBF0FBEFA
:1026C000CDBFDF91CF911F910F91FF90EF90DF90E1
:1026D000CF90BF90AF909F908F907F906F905F90C2
:1026E0004F903F902F90089544805580668077806A
:1026F0004085518562857385CF0140969E838D8389
:10270000A081B1819D0183E0220F331F8A95E1F7FB
:10271000A981BA8112968D919C91D901A80FB91FF8
:102720002D903C9011970484F585E02DEE0FFF1F4E
:102730008B819C81E80FF91F0190F081E02D1496A8
:102740008D919C91892B41F581E090E0E89F90016B
:10275000E99F300DF89F300D1124249F8001259FA3
:10276000100D349F100D1124249DC001259D900D46
:10277000349D900D1124A8016D817E81820D931DE1
:102780000E948438ED81FE81E00FF11F9FEFC91A8E
:10279000D90AE90AF90A8ACF82E090E0D7CFCF932D
:1027A000DF93DB01A656BC4F2C91222369F024E471
:1027B000269FF001279FF00D1124E758FA4FEF01F3
:1027C00019922A95E9F71C9224E4269FF001279F8D
:1027D000F00D1124E758FA4F1482158216821782E1
:1027E0001186108613861286118A108A178616861D
:1027F000DF91CF9172CE2F923F924F925F926F9264
:102800007F928F929F92AF92BF92CF92DF92EF9280
:10281000FF920F931F93CF93DF9300D000D01F92AE
:102820001F92CDB7DEB724E4269FF001279FF00D5D
:102830001124E758FA4F0481158126813781012B35
:10284000022B032B09F4B7C02A016B017C0110E0B5
:1028500000E0812C912C54013F019F01285F3F4FE4
:102860003C832B83CF0104969E838D83AB81BC81F7
:102870008D919C91ED81FE814081518162817381B6
:1028800084169506A606B706E4F10E94FB37D3012D
:102890001A968D919C91892B09F07EC084E48C9DC1
:1028A000D0018D9DB00D1124A758BA4FBC83AB83C6
:1028B00050968D919C910E94FB37EB81FC8186851F
:1028C00097850E94FB37C701B60107DEC701B60135
:1028D00028960FB6F894DEBF0FBECDBFDF91CF9123
:1028E0001F910F91FF90EF90DF90CF90BF90AF902E
:1028F0009F908F907F906F905F904F903F902F9020
:102900004ECFFC01E00FF11F92819983A381AA832E
:102910009F83A887312C212C2414350464F08981ED
:102920009A810E94FB37EFEF8E1A9E0AAE0ABE0A0A
:102930000C5F1F4F9BCFAF81B885ED91FD91B8879C
:10294000AF83309759F0848195810E94FB37EF81E6
:10295000F8853297808191810E94FB37BFEF2B1A57
:102960003B0ADACF800F911FFC01848195810E9480
:10297000FB372B813C812F5F3F4F3C832B83025FD2
:102980001F4FF501808191812B813C8124153505F4
:102990004CF30E94FB3782CF10E000E01C821B82C8
:1029A00024E42C9DC0012D9D900D1124DC01AD5718
:1029B000BA4F5D01E6CF28960FB6F894DEBF0FBE82
:1029C000CDBFDF91CF911F910F91FF90EF90DF90DE
:1029D000CF90BF90AF909F908F907F906F905F90BF
:1029E0004F903F902F90089524E4269FF001279F59
:1029F000F00D1124E758FA4F8289938904970297C2
:102A000058F485E090E0938B828B8FEF9FEFDC0191
:102A1000828F938FA48FB58F08952F923F924F92FC
:102A20005F926F927F928F929F92AF92BF92CF925E
:102A3000DF92EF92FF920F931F93CF93DF93CDB767
:102A4000DEB7AA970FB6F894DEBF0FBECDBF9AA32C
:102A500089A37E8B6D8B1A01098B1A8B2B8B3C8B78
:102A600084E429893A89829F6001839FD00C1124D4
:102A7000860107581A4F89899A89AB89BC89F80160
:102A800080839183A283B383AB01BC01CD01B3DE0C
:102A9000D601A358BA4F84E0F10101900D928A95B6
:102AA000E1F7F4E02F0E311C64E070E0D8011496D9
:102AB0008D919C910E944537F80191878087892BE1
:102AC00009F0F5C04D895E8969897A898B899C896D
:102AD00092DE81E0AA960FB6F894DEBF0FBECDBF9E
:102AE000DF91CF911F910F91FF90EF90DF90CF90EA
:102AF000BF90AF909F908F907F906F905F904F901E
:102B00003F902F900895A9A5BAA58D919C91E98D2C
:102B1000FA8DE80FF91FF88FEF8BD1018D919C9101
:102B2000880F991FA9A1BAA1ED91FC91E80FF91F97
:102B300080819181EF89F88D91838083D1011496F2
:102B40002D913D914D915C9117972BA33CA34DA3E3
:102B50005EA362E070E08D899E890E944537EF890F
:102B6000F88D93838283892B09F4ACCFF8E02F0E84
:102B7000311C412C512C32012BA13CA14DA15EA155
:102B800042165306640675069CF02B8D3C8D4D8DC8
:102B90005E8D2F5F3F4F4F4F5F4F2B8F3C8F4D8F81
:102BA0005E8F498D5A8D4C5F5F4F5A8F498F90C011
:102BB000610124E0C20ED11CD101ED90FC90EE0C1D
:102BC000FF1CEF89F88D82819381E80EF91E68E081
:102BD00070E081E090E00E9445378C01D7018D9331
:102BE0009C93892B09F46ECF84E0F601D801019003
:102BF0000D928A95E1F7B8E02B0E311CF801808127
:102C00009181A281B381181619061A061B06DCF4FD
:102C100064E070E00E944537D80115969C938E932E
:102C20001497892B09F44ECFD12CC12C812C912CD7
:102C30005401F80180819181A281B381881699069F
:102C4000AA06BB0634F0FFEF4F1A5F0A6F0A7F0A2D
:102C500093CFF801E480F580EC0CFD1C80E1F101DC
:102C6000DE01119601900D928A95E1F7F0E12F0EA9
:102C7000311CA701BE016F5F7F4FA9A1BAA11496B5
:102C80008D919C9195DCF80186819781D7011296F0
:102C90002D913C91820F931F97838683BFEF8B1AF0
:102CA0009B0AAB0ABB0AE4E0CE0ED11CC2CF1A8E3F
:102CB000198E1B8E1C8E1D8E1E8E18A30F8FA801C1
:102CC0004C5F5F4F58A74FA3C80108969AA789A7E2
:102CD000EFA1F8A580819181A281B3812B8D3C8DDC
:102CE0004D8D5E8D281739074A075B070CF40BCF13
:102CF0006EE070E08D899E890E944537AF8DB8A146
:102D00001B969C938E931A97B12CA12CD12CC12C7D
:102D1000F12CE12C24E4E989FA892E9FC0012F9F30
:102D2000900D11249C012D573A4F388F2F8B8824FA
:102D30008394912C4D895E89C416D50654F184E4A0
:102D4000A989BA898A9F80018B9F100D1124075889
:102D50001A4FF80115861486C70133E0880F991FB2
:102D60003A95E1F70E945F37D80151969C938E9374
:102D70005097892B09F4A6CEC701880F991F0E948E
:102D80005F37F80197878687892B09F49BCE80E00F
:102D9000A1CED1014D905D906D907D901D0177FC8D
:102DA00091CEEF89F88D008111810A0D1B1DD8018C
:102DB00011969C928E92411451046104710429F180
:102DC000C2010E945F37F80195838483892B09F43F
:102DD00079CEF801538242828481958197838683DC
:102DE000918780871386128681E090E045284628E7
:102DF000472811F490E080E0E80EF91EFFEFCF1AAB
:102E0000DF0A2EE0A20EB11C95CF15961C921E92E1
:102E10001497DFCF2F923F924F925F926F927F92E3
:102E20008F929F92AF92BF92CF92DF92EF92FF92DA
:102E30000F931F93CF93DF93CDB7DEB76A970FB68B
:102E4000F894DEBF0FBECDBF9E8B8D8B49015A011A
:102E500084E4829F7001839FF00C1124970127580E
:102E60003A4F6901FB0180819181F901958B848B37
:102E7000D701A157BA4FFB01349684E001900D921F
:102E80008A95E1F7D701AD56BA4FFB01389684E039
:102E900001900D928A95E1F7D701A956BA4FFB012F
:102EA0003C9684E001900D928A95E1F7D701A955EF
:102EB000BA4FFB01709684E001900D928A95E1F77C
:102EC0008B010C5E1F4FF90186A597A5A0A9B1A99A
:102ED00018161906DCF5880F991F880F991F0E9494
:102EE0005F37F60193AB82AB892B09F4D3C0312C49
:102EF000212C412C512C32019601225D3F4F388FFD
:102F00002F8BC601C2969A8F898FF496FC8BEB8B20
:102F1000B301A2012FEF421A520A620A720AEF8924
:102F2000F88D80819181A281B381481759076A0782
:102F30007B070CF47BC0F60184A995A90E945F373A
:102F4000F60197AB86AB892B09F4A4C0F801808108
:102F50009181A281B38124E4289DF001299DF00D87
:102F60001124E758FA4FAC01BD014D7F21E030E05C
:102F7000452B462B472B11F030E020E033A322A352
:102F800024E4289DF001299DF00D1124E758FA4F03
:102F90000197A109B10921E030E00297A105B1052F
:102FA00010F030E020E035A324A3D701A156BA4F9A
:102FB000F801349684E001900D928A95E1F784E45B
:102FC000889DF001899DF00D1124E758FA4F868DF8
:102FD000978DA0A1B1A1B7FF58C0B095A0959095CD
:102FE00081959F4FAF4FBF4F82AF93AFA4AFB5AFA7
:102FF000168E178E10A211A280E06A960FB6F89472
:10300000DEBF0FBECDBFDF91CF911F910F91FF901B
:10301000EF90DF90CF90BF90AF909F908F907F9078
:103020006F905F904F903F902F900895E98DFA8DAB
:10303000808191819C01220D331D3A8B298B80E187
:10304000F801DE01119601900D928A95E1F7005F7B
:103050001F4F49895A89BE016F5F7F4FED89FE89F5
:1030600084819581A5DAEB89FC8980819181E98948
:10307000FA8922813381820F931FEB89FC89918326
:103080008083F4E02F0E311C43CF12AE13AE14AE8A
:1030900015AEB2CFC501B40120DA81E0AECFCF9238
:1030A000DF92EF92FF92CF93DF931092010624E418
:1030B000269FF001279FF00D1124E758FA4F15A61F
:1030C00014A630E020E0D12CC12CDF011A96C1E01B
:1030D000D0E0C416D506F4F024E4269FF001279F23
:1030E000F00D1124E758FA4F13A612A611AE10AE38
:1030F000DF01DE961D921D921D921C92139782E0B5
:1031000090E0938B828BDF91CF91FF90EF90DF90D7
:10311000CF900895ED91FC911197E20FF31FE2809B
:10312000F3801E141F0454F4E480F580F782E682D5
:10313000F186E08613861286D183C083EFEFCE1A24
:10314000DE0A225F3F4FC5CF24E4269FF001279F70
:10315000F00D1124E758FA4F138A128A4CCB24E45D
:10316000269FF001279FF00D1124E758FA4F82891E
:10317000938981309105C8F08530910518F0059745
:1031800069F008958FEF9FEFDC01828F938FA48FFA
:10319000B58F85E090E0938B828B08958FEF9FEF42
:1031A000DC01828F938FA48FB58F089524E4249F30
:1031B000D001259FB00D1124A758BA4F2EE0AC01C5
:1031C000249FC001259F900D11241A96ED91FC912A
:1031D000E80FF91F81E0809301068285938591872E
:1031E0008087408551852681378181E090E04217B4
:1031F000530711F090E080E09183808308952F922F
:103200003F924F925F926F927F928F929F92AF9276
:10321000BF92CF92DF92EF92FF920F931F93CF93C3
:10322000DF93CDB7DEB7C055D1090FB6F894DEBF36
:103230000FBECDBF9EAF8DAF4BA75CA76DA77EA77E
:103240006801790184E4809FF001819FF00D1124D1
:10325000E758FA4F2285338523963FAF2EAF239749
:1032600082899389029761F486A597A5A0A9B1A93F
:10327000892B8A2B8B2BC9F584E090E0938B828B72
:1032800084E48C9DF0018D9DF00D1124E758FA4FD8
:10329000828993898230910509F037C282AD93AD5E
:1032A000A4ADB5AD22242394312C181619061A06A4
:1032B0001B060CF42FC2C05BDF4F0FB6F894DEBFC5
:1032C0000FBECDBFDF91CF911F910F91FF90EF9077
:1032D000DF90CF90BF90AF909F908F907F906F9036
:1032E0005F904F903F902F900895848995894DADC0
:1032F0005EAD8417950721F606A917A918AE1FAA77
:103300001BAA1CAA1DAA1EAA1F01CF018E962796D2
:103310009FAF8EAF2797DF01D2962996BFAFAEAF92
:103320002997F8962B96FFAFEEAF2B9791012A5D68
:103330003F4F2D963FAF2EAF2D97A1014E5D5F4FB2
:103340002F965FAF4EAF2F970A9761969FAF8EAFC4
:1033500061972796EEADFFAD279780819181A2817D
:10336000B3812BA93CA94DA95EA9281739074A07A3
:103370005B0744F081E090E0D101D9969C938E9355
:10338000D8977ECF2996AEADBFAD2997ED91FC9130
:103390002FA938ADE20FF31F428153815AAF49AFD5
:1033A00050815FAF818121968FAF21972B96AEAD73
:1033B000BFAD2B978D919C91892B21F12D96EEAD70
:1033C000FFAD2D9780809180A280B3801AAB09ABAE
:1033D0005FA72196FFAD2197F8AB29AD3AAD3695A1
:1033E00027953695279525963FAF2EAF25971CAE8E
:1033F0001BAE2596AEADBFAD2597EBADFCADEA1784
:10340000FB070CF149AD5AAD6FAD21967FAD219709
:10341000C8010E94843889AD9AAD8C7F080F191FAE
:103420002BA93CA94DA95EA92F5F3F4F4F4F5F4F7E
:103430002BAB3CAB4DAB5EAB4FA958AD4C5F5F4F78
:1034400058AF4FAB86CF2F96AEADBFAD2F978D91B6
:103450009C91892B71F1EFA5F8A940805180628081
:103460007380A3019201C501B4010E94702C18164B
:1034700064F0A9A9BAA92D913D914D915C91C50126
:10348000B4010E94602E1816BCF1A3019201C5017F
:10349000B4010E94702C87FF0CC0E9A9FAA9208111
:1034A000318142815381C501B4010E94702C88236F
:1034B00019F16196AEADBFAD61978D919C91892B4D
:1034C00009F445C0EFA5F8A940805180628073805F
:1034D000A3019201C501B4010E94602E18161CF5CB
:1034E000A9A9BAA92D913D914D915C91C501B40155
:1034F0000E94702C18165CF184E48C9DF0018D9D67
:10350000F00D1124E758FA4F868D978DA0A1B1A137
:10351000892B8A2B8B2B69F183E090E0938B828B34
:1035200081E090E02CC0A3019201C501B4010E948A
:10353000702C81110CC0E9A9FAA920813181428146
:103540005381C501B4010E94702C87FDD5CF2BADEE
:103550003CAD2F5F3F4F3CAF2BAF49A95AA94C5F01
:103560005F4F5AAB49AB8FA598A9049698AB8FA72C
:1035700040CF84E090E0938B828B86AD97AD93A78C
:1035800082A77ECEEBADFCAD80819181F401EE0F80
:10359000FF1FEE0FFF1FE80FF91FA081B1818C9173
:1035A00081110AC0FFEF8F1A9F0AAF0ABF0A8DA2CE
:1035B0009EA2AFA2B8A68FC18330A1F30280F3818F
:1035C000E02D2FA938ADE20FF31F808191819AABD6
:1035D00089AB892B39F34F5F5F4F6F4F7F4F49871F
:1035E0005A876B877C879E01235E3F4FAE01475D04
:1035F0005F4F64E070E0C8010E9400128111D0C1E9
:103600008D819E81AF81B8850496A11DB11D8D83EA
:103610009E83AF83B8874D8D5E8DBE016B5D7F4FFE
:103620008F8D98A10E9484388BA19CA1009761F096
:103630006D8D7E8DA5E2B0E0AC0FBD1F6A0F7B1FC4
:1036400049A15AA10E9484381CAA1BAA412C512CC2
:103650003201E9A9FAA980819181A281B38148163A
:1036600059066A067B060CF09DCFE9A9FAA9848168
:1036700095812BA93CA9280F391F38AB2FA7D90159
:1036800012966D917C919E01235E3F4FAE01475D86
:103690005F4FC8010E940012811182C1EFA5F8A9F5
:1036A00082819381092E000CAA0BBB0B4D815E8198
:1036B0006F817885840F951FA61FB71F8D839E830A
:1036C000AF83B887608171814D8D5E8D8F8D98A19C
:1036D0000E9484388BA19CA1009761F0AFA5B8A986
:1036E0006D917C912D8D3E8D620F731F49A15AA162
:1036F0000E948438BFEF4B1A5B0A6B0A7B0AEBA966
:10370000FCA93496FCABEBABA4CF312C212C049755
:1037100009F0D1CD8EE0EDADFEAD8E9F80018F9F83
:10372000100D112423962EAD3FAD2397020F131FCA
:10373000D80112964D915C9113974115510509F4EA
:10374000BACD16968D919C919AA789A780E1FE012A
:103750003196DF011D928A95E9F7C98ADA8AEB8AE8
:10376000FC8A2114310409F458C084E48C9DF001D2
:103770008D9DF00D1124E758FA4FDF01DE968D90F4
:103780009D90AD90BC9082AD93ADA4ADB5AD8816C3
:103790009906AA06BB0609F040C0F801848195810C
:1037A0000084F185E02D349624E0DE0155960190E9
:1037B0000D922A95E1F72D893E89285F3F4F3E8B78
:1037C0002D8BD80118966D917C911997260F371F74
:1037D00019963C932E93189718962D913C91199712
:1037E000480F591F241B350B37FD06C0820F931F4E
:1037F00019969C938E93189784E48C9DF0018D9D6F
:10380000F00D1124E954FA4FB1E08B1A9108A10888
:10381000B10880829182A282B3829E012B5E3F4FCB
:10382000AE01475D5F4F64E170E0C8010E94001285
:103830008111B6C08CE090E0A0E0B0E08D839E8363
:10384000AF83B8879E01235E3F4FAE01475D5F4F58
:1038500064E070E0C8010E9400128111A1C080E103
:1038600090E0A0E0B0E08D839E83AF83B8874D8D5C
:103870005E8DBE01655D7F4F8F8D98A10E9484385B
:103880008BA19CA1009761F06D8D7E8DEBE2F0E045
:10389000EC0FFD1F6E0F7F1F49A15AA10E948438B3
:1038A0001DA21EA21FA218A62DAD3EAD220F331FD2
:1038B00038AF2FAB24E42C9DC0012D9D900D112419
:1038C00087589A4FAC014C5F5F4F5AAF49AFDC014C
:1038D0001896BCAFABAF8DA09EA0AFA0B8A4498591
:1038E0005A856B857C85E9ADFAAD80819181A28195
:1038F000B38188169906AA06BB060CF443CE452B65
:10390000462B472B09F4D7CC8AE190E0A0E0B0E049
:1039100089839A83AB83BC832DAD3EADC901330F40
:10392000AA0BBB0B8D879E87AF87B88B4D895E89AD
:10393000BE016F5F7F4F8F89988D0E9484388B8D79
:103940009C8D009761F06D897E8941E050E04C0FBD
:103950005D1F640F751F498D5A8D0E94843889A59B
:103960009AA5D80117969C938E93169711961C9240
:103970001E92232809F49FCC84E48C9DF0018D9D38
:10398000F00D1124E954FA4F80819181A281B38115
:103990000196A11DB11D80839183A283B3838BCC3B
:1039A000232809F088CC84E48C9DF0018D9DF00DD6
:1039B0001124E758FA4F81E090E095A784A785E0AD
:1039C00090E0938B828B77CCCF92DF92EF92FF9235
:1039D0000F931F9324E4269FF001279FF00D1124DD
:1039E000E758FA4F228933892115310509F452C06D
:1039F0006B017C0121303105B1F482A593A59C01B6
:103A00002F5F3F4F33A722A7092E000CAA0BBB0B39
:103A1000028D138D248D358D80179107A207B30772
:103A2000C9F5C7013CDB84E48C9DF0018D9DF00D50
:103A30001124E758FA4F82899389039759F582A593
:103A400093A59C012F5F3F4F33A722A7092E000C9F
:103A5000AA0BBB0B468D578D60A171A184179507EA
:103A6000A607B707BCF086AD97AD93A782A784E001
:103A700090E0938B828B82AD93ADA4ADB5AD18165B
:103A800019061A061B0634F4EE5BFF4F81E090E046
:103A9000918380831F910F91FF90EF90DF90CF90E3
:103AA000089524E4269FF001279FF00D1124E75884
:103AB000FA4F828993890497B1F482A593A5019660
:103AC00093A782A7092E000CAA0BBB0B4689578926
:103AD000608D718D84179507A607B70721F485E0DF
:103AE00090E0938B828B08952F923F924F925F923A
:103AF0006F927F928F929F92AF92BF92CF92DF92FE
:103B0000EF92FF920F931F93CF93DF93CDB7DEB762
:103B10002E970FB6F894DEBF0FBECDBFDC014983F0
:103B20005A836B837C83290184E4849FF001859F01
:103B3000F00D1124E758FA4F22883388C101049709
:103B4000029708F0D5C011961C921E9213961C92F3
:103B50001E92129715861486912C812C90E080E09D
:103B60008F019F01205F3F4F38872F833F013CE04B
:103B7000630E711CBF01625F7F4F7A8769873A9637
:103B8000FC87EB87EF81F88520813181F30140814B
:103B90005181E985FA85A080B180841595050CF4E2
:103BA00045C011965C934E9313963C932E931297B7
:103BB0001596BC92AE921497452BF9F4F5E02F16AA
:103BC0003104D9F410920106F801828D938DA48DF1
:103BD000B58DAE014F5F5F4F64E070E08F3F9F4F48
:103BE000AF4FBF4F09F079C080E290E0F6D4698111
:103BF0007A818B819C81A201A7DA2E960FB6F89468
:103C0000DEBF0FBECDBFDF91CF911F910F91FF900F
:103C1000EF90DF90CF90BF90AF909F908F907F906C
:103C20006F905F904F903F902F900895EB85FC85AB
:103C300060817181FB01E80DF91DFE87ED876081D0
:103C40007181672B89F5E084F184628173817E83C1
:103C50006D83668177816A01E3E0CC0CDD1CEA9517
:103C6000E1F72C0D3D1D440F551F4A0D5B1DFA0158
:103C700091838083F301408151814F5F5F4F518376
:103C80004083F901F382E282ED85FE8573876287C6
:103C9000E616F70670F46E197F09F90171836083E7
:103CA00015821482178216820196FEE08F0E911CF7
:103CB00069CFED85FE85C480D5804D815E814C0D38
:103CC0005D1D4E195F09F901518340836C197D090F
:103CD00075836483D782C682E7CF8FE190E07DD47D
:103CE000F80113A612A681E090E0938B828B85CF1A
:103CF0001586148611961C921E9213961C921E9283
:103D000012977BCFEF92FF920F931F93CF93DF9386
:103D10007C018B01EA013DD581111BC080919C0380
:103D200090919D030497F9F4DF91CF911F910F912A
:103D3000FF90EF90089528ED38EB45E050E060E00B
:103D400070E0CB01DCD7AE01B801C701E6D7C801EE
:103D5000AFD78091020690910306892BF9F68881EE
:103D6000882349F3DBCF83E090E090939D03809319
:103D70009C03DACFCF93DF9320919C0330919D0376
:103D80002430310531F0EB01C8D7CE01DF91CF915E
:103D90008FC7DF91CF9108950C948B2A0C94802AC1
:103DA0000C946E2A95C70C94122A089570E060E076
:103DB00090E080E0C9C40895AF92BF92CF92DF92A5
:103DC000EF92FF920F931F93CF93DF931F921F9257
:103DD000CDB7DEB75C018B0169017A0190E080E02C
:103DE000C114D104E104F10469F40F900F90DF9144
:103DF000CF911F910F91FF90EF90DF90CF90BF90E8
:103E0000AF9008959C2D8D2DC114D10421E0E206C0
:103E1000F10410F09FEF8FEF9E012F5F3F4F492F6E
:103E2000582FB801C5010E941A2B8F3F9807E9F25D
:103E300029813A81C21AD30AE108F108020F131F3F
:103E4000CFCF40E855E260E070E090E080E000C055
:103E50008130910579F01CF4892B39F00895823076
:103E6000910561F0039771F0089526E089E396E0EB
:103E70000C94363426E086ED96E0FACF26E083E710
:103E800097E0F6CF26E080E198E0F2CF1F920F9204
:103E90000FB60F9211240BB60F922F933F934F93AF
:103EA0005F936F937F938F939F93AF93BF93EF93A2
:103EB000FF938EE19BEF90932501809324010E9454
:103EC000542BFF91EF91BF91AF919F918F917F9173
:103ED0006F915F914F913F912F910F900BBE0F907B
:103EE0000FBE0F901F9018958EE19BEF90932501C8
:103EF00080932401A3E7B0E08C918E7F8C93E0E265
:103F0000F1E080818C7F8083E1E2F1E08081877E37
:103F1000808380818360808380818B7F80838C918C
:103F200081608C93089581E008958F929F92AF9263
:103F3000BF92CF92DF92EF92FF920F931F93CF9396
:103F4000DF935C017B018A01C1E0D0E0CE15DF0583
:103F5000CCF081E0F5018083B801C7010E94B52A49
:103F6000F5019283818390E080E0DF91CF911F91F2
:103F70000F91FF90EF90DF90CF90BF90AF909F9008
:103F80008F9008956E018FEFC81AD80AFE01EE0FC8
:103F9000FF1FE00FF11F808091808114910469F070
:103FA0006FEB74E0C4010E949438892B41F4CC0F6C
:103FB000DD1FC00FD11F19821882E601C7CF62EC46
:103FC00074E0C4010E949438892BB9F7EC14FD0405
:103FD000A1F36E01E2E0CE0ED11CCC0FDD1FC00FAD
:103FE000D11F198218821B821A82E7CF84E096E0E3
:103FF000089580E008950F931F93CF93DF938B0173
:10400000BA01E901198218829801012E000C440BB3
:10401000550BFC0181819281CFDE019641F019831D
:10402000088380E0DF91CF911F910F91089581E087
:10403000F9CF0F931F93CF93DF931F921F92CDB7AA
:10404000DEB7FB018A01B9019E012F5F3F4FAF012F
:10405000FC01818192810E94CC2A019669F08981BC
:104060009A81F8019183808380E00F900F90DF9117
:10407000CF911F910F91089581E0F7CFFC018081CE
:1040800008950895089581E0FB01808380E00895FC
:10409000089510922C060895FC01818192810C9460
:1040A000AD2ACF93DF9300D000D000D01F92CDB7C0
:1040B000DEB7B0E0A0E089839A83AB83BC83CB01F9
:1040C000770FAA0BBB0B8D839E83AF83B8879E01AE
:1040D000275F3F4FAE014F5F5F4F68E070E0809118
:1040E0001B0690911C0687DF811110C081E0298595
:1040F0003A852830310509F480E02A960FB6F89405
:10410000DEBF0FBECDBFDF91CF91089581E0F5CF27
:104110000F931F93CF93DF931F921F92CDB7DEB7FC
:104120008B019E012F5F3F4FAC0180911B06909148
:104130001C0661DF81110EC081E029813A812017C0
:10414000310709F480E00F900F90DF91CF911F911C
:104150000F91089581E0F7CFCF93DF93EC01109298
:104160001F0610921E0610922B0610922A06AC0112
:1041700060E070E0CB010E94A418AE0161E070E045
:1041800080E090E00E94A41880911B0690911C068C
:10419000DF91CF917DCF4F925F926F927F928F92FE
:1041A0009F92AF92BF92CF92DF92EF92FF920F93C6
:1041B0001F93CF93DF931F921F92CDB7DEB78C0171
:1041C0007C0197FF03C087E0E80EF11C23E0F59423
:1041D000E7942A95E1F7C80168E070E00E94F436A0
:1041E0006C010E5F1F4F8091190690911A0680177F
:1041F0009107D4F48091170690911806009731F03A
:104200000E94FB3710921A0610921906C8010E94EC
:104210005F379093180680931706892B09F482C0A4
:1042200010931A060093190610E000E047C1412CD4
:10423000512C3201B12CA12C9501205E394FAE01D9
:104240004F5F5F4F61E070E080911B0690911C060C
:10425000F0DE811149C0EFEF4E1A5E0A6E0A7E0A47
:10426000F0E94F16FFE55F06F1E06F06710444F0D8
:1042700060912A0670912B068DEE90E012DFD7CF69
:1042800089819A81A80EB91E8AE0A816B10409F0A6
:1042900043C049E050E070E060E080E296E00E94B8
:1042A000462B60912A0670912B06882391F180910C
:1042B000280690E08617970781F4BC018EEE90E007
:1042C000F0DE80912A0690912B0601969927909313
:1042D0002B0680932A060F5F1F4F0E151F050CF447
:1042E000A6CFCD2809F07CC090E080E00F900F9021
:1042F000DF91CF911F910F91FF90EF90DF90CF90C2
:10430000BF90AF909F908F907F906F905F904F90F5
:1043100008958FEE90E0B2CFEAE0AE16B1040CF44F
:104320008BCFDBCF10E000E0D8CF0A30110531F59C
:1043300049E050E070E060E080E296E00E94462BA9
:1043400060912A0670912B068823A9F08091280697
:1043500090E08617970741F6BC018EEE90E0A1DE53
:1043600080912A0690912B060196992790932B060F
:1043700080932A06B9CF8FEE90E02BC00A3011054A
:104380000CF0B2CF9801205E394FAE014F5F5F4F06
:1043900061E070E080911B0690911C064ADE81115D
:1043A000A3CF89819A81080F191FFFEFCF1ADF0A67
:1043B000EF0AFF0A80E9C8168FE5D80681E0E80613
:1043C000F1040CF4B2CF60912A0670912B068DEEA9
:1043D00090E067DE10E000E0C12CD12C7601D2CF56
:1043E000C12CD12C760110E000E0CCCF412C512C17
:1043F0003201B12CA12C480193E0880C991C9A95AC
:10440000E1F72091170630911806C501880D991D16
:10441000280F391FAE014F5F5F4F61E070E0809160
:104420001B0690911C0605DE81115ECFEFEF4E1A40
:104430005E0A6E0A7E0A60912A0670912B068DEE46
:1044400090E0F0E94F16FFE55F06F1E06F067104BA
:104450000CF043C089819A81A80EB91E8AE0A81683
:10446000B10409F041C049E050E0B4018091170661
:10447000909118060E94462B60912A0670912B0697
:10448000882349F18091170690911806880E991E8D
:10449000F401808590E08617970781F4BC018EEEC9
:1044A00090E0FFDD80912A0690912B0601969927D6
:1044B00090932B0680932A060F5F1F4F0E151F0542
:1044C0000CF494CFC114D10409F081C08091170677
:1044D000909118060BCF8FEE90E0E3DD412C512C2C
:1044E0003201B12CA12C8DCFFAE0AF16B1040CF43F
:1044F00088CFE4CF8FEE90E0D4DDF12CE12C812C3D
:10450000912C54019701205E394FAE014F5F5F4FF0
:1045100061E070E080911B0690911C068ADD81119C
:10452000E3CE8FEF881A980AA80AB80A60912A0683
:1045300070912B068DEE90E0E0E98E16EFE59E0679
:10454000E1E0AE06B104C4F689819A81E80EF91E55
:10455000FAE0EF16F104A9F549E050E070E060E000
:1045600080E296E00E94462B60912A0670912B060D
:10457000882309F4BFCF8091280690E0861797071B
:1045800009F0A4CFBC018EEE90E08BDD83E0000F3C
:10459000111F8A95E1F78091170690911806A601E0
:1045A00060E276E0800F911F0E94843880912A0695
:1045B00090912B060196992790932B0680932A06BB
:1045C00085CF8AE0E816F1040CF49CCF7FCF812CD4
:1045D000912C5401F12CE12C95CFCF92DF92EF92E8
:1045E000FF920F931F93CF93DF931F92CDB7DEB748
:1045F0006C017B018A01452B39F0AB0170E060E072
:10460000C8010E94422B8983B701C6014ADD81118E
:104610000DC00115110551F0B701C80179DD8111F7
:1046200005C061E070E0CE01019672DD0F90DF9170
:10463000CF911F910F91FF90EF90DF90CF90089551
:10464000CF92DF92EF92FF92CF93DF9300D000D012
:104650001F921F92CDB7DEB76B01F12CE12CC982FE
:10466000DA82EB82FC822D833E834F835887AE0132
:104670004F5F5F4F68E070E0B0DF28960FB6F894A8
:10468000DEBF0FBECDBFDF91CF91FF90EF90DF90E7
:10469000CF9008958F929F92AF92BF92CF92DF9268
:1046A000EF92FF920F931F93CF93DF937C01EB0167
:1046B000CA01690170DD0097B1F42FEF3FEFA90146
:1046C00061E070E0C701BCDFC1E08C2FDF91CF91CA
:1046D0001F910F91FF90EF90DF90CF90BF90AF9020
:1046E0009F908F900895FC0181909190A190B1903E
:1046F000BF01FCE1EF16F10479F4A5019401CE01AC
:104700000E940A17C82FA5019401882369F061E06F
:1047100070E0C70195DFD9CF95018401AB01B601E7
:10472000CE010E940D15EECF70E060E0C701DF9171
:10473000CF911F910F91FF90EF90DF90CF90BF909E
:10474000AF909F908F907CCF0F931F93CF93DF9369
:10475000EC018B014BDC90931C0680931B060097A9
:10476000A9F0A801BE01E1DBEC01892B49F08091A1
:104770001B0690911C0685DC10921C0610921B06ED
:10478000CE01DF91CF911F910F910895CEECD4E02F
:10479000EECF80911B0690911C0670CC2F923F9219
:1047A0004F925F926F927F928F929F92AF92BF9241
:1047B000CF92DF92EF92FF920F931F93CF93DF93ED
:1047C000CDB7DEB769970FB6F894DEBF0FBECDBF89
:1047D00020911F062223F1F05B8B4A8B6E877F8727
:1047E000888B998B9A01AB01BC01CE0101967C01AB
:1047F0007BD910E048E0242E312CE88EF98E898197
:104800009A81181619060CF450C2112319F08A89DE
:104810009B89A2DC69960FB6F894DEBF0FBECDBFB0
:10482000DF91CF911F910F91FF90EF90DF90CF908C
:10483000BF90AF909F908F907F906F905F904F90C0
:104840003F902F900895EB81FC818C859D8533E00E
:10485000880F991F3A95E1F7E80FF91F8081918140
:1048600090931606809315062481358142815381E9
:1048700050931406409313064681578150931206B5
:1048800040931106820F931F9C01990F440B550B07
:104890002C8B3D8B4E8B5F8B812C912C54018C8902
:1048A0009D89AE89BF8988169906AA06BB0638F18C
:1048B0008C859D85880F991FED81FE81E80FF91F7A
:1048C0004E855F8568897989808191810E94D6189B
:1048D000AC85BD851196BD87AC8789819A81EC85B1
:1048E000FD85E817F9070CF4AECF2A893B894E8580
:1048F0005F8568897989888D998DF6D880CF1F82E8
:104900006091150670911606CB01072E000CAA0BBC
:10491000BB0B84017501640134E0C30ED11CE11CA2
:10492000F11CC816D906EA06FB0608F0B3C02091B0
:10493000130630911406A4014C5F5F4F240F351FFE
:10494000F901C080D12CF12CE12C24013501F5E0D6
:104950004F0E511C611C711C481659066A067B06D5
:1049600008F0A3C02091130630911406F801359683
:10497000E20FF31F2081D22A2401350126E0420EE6
:10498000511C611C711C481659066A067B0608F00A
:1049900097C02091130630911406F8013696E20F65
:1049A000F31F2081E22A2401350137E0430E511C18
:1049B000611C711C481659066A067B0608F08BC0FC
:1049C0002091130630911406F8013796E20FF31F79
:1049D000208126013701722A7501640148E0C40E66
:1049E000D11CE11CF11C8C159D05AE05BF0508F41A
:1049F0001DC188169906AA06BB0608F077C08091EB
:104A0000130690911406800F911F68E070E080DB20
:104A1000E0911506F09116069F010F2E000C440B35
:104A2000550BD301C2018C0D9D1DAE1DBF1D281756
:104A300039074A075B0708F478C0C216D306E406B4
:104A4000F50608F05DC08091130690911406980158
:104A5000285F3F4F820F931FB2015ADB80911506EA
:104A600090911606AC01092E000C660B770BC4164C
:104A7000D506E606F70608F04DC0085F1F4F809187
:104A8000130690911406800F911FA20170E060E060
:104A9000F9D5A7C044E050E0461B570B480D591DFF
:104AA000209111063091120649CFE5E0F0E0E61BB7
:104AB000F70BE00FF11F209111063091120658CF2D
:104AC000E6E0F0E0E61BF70BE00FF11F2091110686
:104AD0003091120664CFE7E0F0E0E61BF70BE00F41
:104AE000F11F209111063091120670CF9801261BFC
:104AF000370B8091110690911206820F931F85CF7C
:104B000091012E1B3F0B200F311F809111069091B8
:104B10001206A0CFD101A81BB90BCD01080F191F98
:104B20008091110690911206AECFBF0168507109B5
:104B3000601B710BC216D306E406F50608F062C0CE
:104B400080911306909114069801285F3F4F820FC1
:104B5000931FDEDA8091150690911606B101681B4D
:104B6000790B600F711F640D751D80911106909176
:104B70001206CEDA8091150690911606AC014850C7
:104B80005109FA01E01BF10BAC01092E000C660B78
:104B9000770BC416D506E606F70608F03DC08091EF
:104BA0001306909114069801285F3F4F820F931FC0
:104BB000AF0170E060E066D58F83209115063091DB
:104BC0001606F101E21BF30B9F01200F311F240D8C
:104BD000351D50E040E0682F80911106909112063B
:104BE0003DD58F8361E070E0CE01079691DA182FF2
:104BF00038E0430E511C611C711C840C951CA61CD2
:104C0000B71C4DCE91012E1B3F0B200F311F809101
:104C10001106909112069BCF9101281B390B200F92
:104C2000311F8091110690911206C0CF8816990607
:104C3000AA06BB0668F5601B710B80911306909164
:104C40001406800F911F64DA809115069091160664
:104C5000B101681B790B600F711F640D751D809188
:104C600011069091120654DA80911506909116065D
:104C7000AC01092E000C660B770BC416D506E606B0
:104C8000F70608F4FACE9101281B390BC90146CF6B
:104C9000C801861B970B2091110630911206B201B4
:104CA000685F7F4F820F931FDECF1D861C8615CE57
:104CB000CF93DF93EC01AC0160E070E0CB016EDDDF
:104CC000AE0161E070E080E090E0DF91CF9166CDD1
:104CD000CF9380911B0690911C068BD9C82F811110
:104CE0000BC060E070E0CB010E94CF1361E070E088
:104CF00080E090E00E94CF138C2FCF9108950F9306
:104D00001F9389019A01AB01BC0180911B06909110
:104D10001C06B8D91F910F9108954F925F926F9220
:104D20007F928F929F92AF92BF92CF92DF92EF923B
:104D3000FF920F931F93CF93DF93CDB7DEB76397A7
:104D40000FB6F894DEBF0FBECDBF6C018B015A01C8
:104D500080911F06882309F43DC080911F06882397
:104D600009F442C080911E061A821982882309F430
:104D7000C0C0F0E94F2EFFE55F2E66246394712CCE
:104D8000F12CE12C9701295F394FAE014F5F5F4F46
:104D900061E070E080911B0690911C064AD9982E24
:104DA000811169C089819A81E80EF91EE114F1042C
:104DB00009F461C081E0481A51086108710859F589
:104DC00060912A0670912B068DEE90E06AD91A82C6
:104DD000198251C06FE176E080911B0690911C060C
:104DE00052D9882309F4B9CF63960FB6F894DEBF81
:104DF0000FBECDBFDF91CF911F910F91FF90EF902C
:104E0000DF90CF90BF90AF909F908F907F906F90EA
:104E10005F904F900895AAE0EA16F10409F063C08C
:104E200049E050E070E060E087E096E02FD46091C8
:104E30002A0670912B06882309F452C080910F0630
:104E400090E08617970719F6BC018EEE90E029D9FD
:104E500088E0E7E0F6E0DE01199601900D928A9570
:104E6000E1F780912A0690912B060196992790935D
:104E70002B0680932A0681E029813A8112161306B7
:104E80000CF080E09110CAC2882309F4ADCF809164
:104E90001E06811104C019861A861B861C86898508
:104EA0009A85AB85BC8580319105A105B10508F0D7
:104EB0009BCFFC018827E05AF84D8F4F0C9429377F
:104EC000E0279F290E2AF426E4281729D027D8277F
:104ED000B427F329E229EF29F426F426F4269F27A4
:104EE0008FEE90E073CFBAE0EB16F1040CF44ACFEA
:104EF000C2CFF12CE12CE8E06E2E712C29E030E0DD
:104F00002C0F3D1F2E0D3F1DAE014F5F5F4FB301B4
:104F10006E197F0980911B0690911C068AD8982EE5
:104F200029813A81811109C0E20EF31EE114F104D6
:104F300021F0E8E0EE16F1040CF381E09FCFD601FA
:104F40001696ED91FC9180819181A281B381898334
:104F50009A83AB83BC83AE014F5F5F4F64E070E028
:104F600085E190E03ADB40CF8D859E8514D92FEF07
:104F70003FEFA90161E070E0009771F0FC01C08093
:104F8000D180E280F380A801C701B6010E944F18CA
:104F9000A701960170E060E08DE190E051DB24CF45
:104FA0004D855E859801B6018BE190E073DB1CCFE7
:104FB0004D855E852FEF3FEFB6018CE190E0F6CF97
:104FC000D6011496ED91FC9100811181F801828047
:104FD0009380A080B18070E1472E512C612C712C00
:104FE00049825A826B827C8288E090E0A0E0B0E047
:104FF0008D839E83AF83B8879E012F5E3F4FAE01A6
:105000004F5F5F4F68E070E080911B0690911C0637
:105010000E94FB1F8823D9F010E000E0C8016396CE
:105020000FB6F894DEBF0FBECDBFDF91CF911F91B9
:105030000F91FF90EF90DF90CF90BF90AF909F9037
:105040008F907F906F905F904F900C94FB37898981
:105050009A89089709F7D801ED90FC90B8E0EB0E1B
:10506000F11CEE0CFF1CEE0CFF1CC7010E945F3709
:105070008C01892B89F249825A826B827C82C7011A
:105080000F2C000CAA0BBB0B8D839E83AF83B887BC
:105090009E012F5E3F4FAE014F5F5F4F68E070E0B3
:1050A00080911B0690911C060E94FB1F8111B6CFB8
:1050B00089899A89089709F0B1CFD6011296ED91A6
:1050C000FC914081518162817381D8014D935D9340
:1050D0006D937C93139744815581668177811496F3
:1050E0004D935D936D937C931797408551856285B1
:1050F000738518964D935D936D937C931B97848570
:105100009585A685B785F80184879587A687B78793
:10511000108A118A128A138A84E090E0A0E0B0E03D
:10512000848B958BA68BB78B80919C0390919D036C
:10513000B0E0A0E0808F918FA28FB38FC5010B2CC0
:10514000000CAA0BBB0B848F958FA68FB78FF40131
:10515000D801909690E080E08A159B055CF19E0155
:105160002F5E3F4FA801B70180911B0690911C064E
:105170000E94FB1F811152CF89899A89E816F9068E
:1051800009F04CCFA70170E060E0C8017BD28B8BA7
:105190009E012F5E3F4FAE014D5E5F4F61E070E0BC
:1051A00080911B0690911C060E94FB1F81E080935A
:1051B0001E0634CF4191519170E060E04D935D93B4
:1051C0006D937D930196C8CF8D859E85AF85B889F7
:1051D0000097A105B10521F481E080931D0604CE5E
:1051E0000E94CB20009781F481E090E0A0E0B0E045
:1051F00089839A83AB83BC83AE014F5F5F4F64E0CA
:1052000070E082E190E0AECEBC01C6010E9429139D
:1052100019821A821B821C82AE014F5F5F4F64E0CD
:1052200070E082E190E0D9D98823B1F2DDCDD601DA
:105230001496ED91FC910190F081E02DE084F184D1
:105240008FEF8983E114F10409F472C0D7016D90E6
:105250007C90C280D38070E060E090E080E08615B2
:10526000970594F083E190E00E94512010E000E067
:105270008111BACD061517055CF161E070E0CE0131
:1052800001960E948820B0CD9C0143E0220F331F7D
:105290004A95E1F7F701A281B381A20FB31F1296DD
:1052A000ED91FC911397EE0FFF1FEC0DFD1D01908A
:1052B000F081E02D16964D915C91E49F9001E59F61
:1052C000300DF49F300D1124620F731F0196C7CF6C
:1052D000D7011296ED91FC91C80123E0880F991F28
:1052E0002A95E1F7E80FF91FA080B180A281B38170
:1052F000AA0FBB1FAC0DBD1D2D913C9186819781DE
:10530000289F4001299F900C389F900C1124B401D4
:10531000C5010E948820582E940150E040E0698128
:10532000C5019CD1898351105FCD0F5F1F4FA2CF64
:1053300070E060E083E190E00E94512055CD50E0A4
:1053400040E070E060E081E190E047D981114CCD10
:1053500060E070E0CB010E94F41480910106882384
:1053600029F0A80160E070E0CB0118DAA80160E044
:1053700070E0CB010E94FB1361E070E080E090E000
:105380000E94F41480910106882331F0A80161E0A5
:1053900070E080E090E002DAA80161E070E080E077
:1053A00090E00E94FB1310921F0610921E061092AE
:1053B0002B0610922A0680911B0690911C060E94D3
:1053C000492012CD81E090E090930306809302067D
:1053D00050E040E070E060E086E190E0C3CD81E025
:1053E000F501808301CD8D859E850E94CB202FEF16
:1053F0003FEFA90161E070E0009769F0DC01CD901A
:10540000DD90ED90FC90C701B6010E94AF18A70196
:10541000960170E060E08EE190E0C0CDC8010E948E
:10542000AC20E2CCCF92DF92EF92FF92CF93DF934A
:10543000EC01C12CD12C7601C701B6010E94F414F5
:10544000AE01C701B601AAD9AE01C701B6010E94DB
:10545000FB138091170690911806009731F00E9477
:10546000FB371092180610921706CA94CD28CE2842
:10547000CF2879F580911E06F12C882351F050E059
:1054800040E070E060E084E190E0A7D8F82E109250
:105490001E0680911F06882341F010921F0681E0AE
:1054A00090E090939D0380939C0380911B069091C4
:1054B0001C060E944C2080911B0690911C060E94A5
:1054C00041208F2DDF91CF91FF90EF90DF90CF9013
:1054D0000895C12CD12C7601C394AECFCF93DF9326
:1054E000EC01AC0160E070E0CB010E94E41CAE0175
:1054F00061E070E080E090E0DF91CF910C94E41CDB
:1055000060E070E0CB010E94511D61E070E080E03E
:1055100090E00C94511DCF92DF92EF92FF920F9387
:105520001F93CF93DF93EC016A017B0100E010E051
:1055300098010E94FF1801E010E020E030E0B70180
:10554000A601CE010E94FF18DF91CF911F910F910C
:10555000FF90EF90DF90CF90089568EE73E080E0C9
:1055600090E057D690E080E0089526E040E050E1DA
:105570006EE070E089E396E00E94363489E396E0BD
:105580000E946C33892B29F089E396E00E948633D0
:10559000F5CF90E080E00895CF92DF92EF92FF92F6
:1055A0000F931F93CF93DF936B017A01E901198267
:1055B000188289E396E00E946C33892B81F1860181
:1055C000CC24C39485E6D82E80912C06811112C07C
:1055D00089E396E00E94863385369105A9F7C0924B
:1055E0002C06F801D1928F018881998101969983C7
:1055F0008883EACF888199818E159F0580F489E39D
:1056000096E00E9486338F3F9807A1F3F8018193BB
:105610008F0188819981019699838883EBCF90E0EF
:1056200080E0DF91CF911F910F91FF90EF90DF907D
:10563000CF9008950F931F93CF93DF93EA018901D1
:1056400089E396E00E94C636F801D183C08390E0DA
:1056500080E0DF91CF911F910F910895DC01A40F9D
:10566000B51F420F531F9D01281B390B2417350707
:1056700010F0862F0895ED91E627F0E0EC51FF4FF2
:105680006491F1CF9A01AB016FEFE8CFCF93FC01AA
:10569000E60FF71FE40FF51FC081F4DF91E0C81398
:1056A00090E0892FCF91089580912D0691E0980F79
:1056B00090932D06882349F021E030E030932F06A7
:1056C00020932E0680932D06089578940E94FB0661
:1056D000F89480912D06815080932D060C94CE1E57
:1056E000FF920F931F93CF93DF931F92CDB7DEB737
:1056F0001092A9091092A809C2D50E94211F0091F9
:10570000D7031091D803F8011182108270E060E095
:1057100090E080E00E94D61E0E943D0F7894C80160
:1057200082960E94D51E81E090E00E94D21E1982CE
:10573000AE014F5F5F4F61E070E0F80182819381BD
:105740000E94821E8981882319F081E0F80186A3D6
:105750000E94DB1EF8940E94741FF80180819181E1
:10576000892B19F481E096A1911180E08093A8091A
:1057700078947894FF24F3948091A809811110C043
:105780000E940E1181E090E00E94D31EF89490E0F8
:1057900080E00F90DF91CF911F910F91FF900895BE
:1057A0001982AE014F5F5F4F61E070E0F8018281C6
:1057B00093810E94BA1E8981882311F0F801F6A214
:1057C000F80180819181892B89F481E096A1911162
:1057D00001C080E08093A9099091A90981E091110D
:1057E00080E08093A8090E94931FC6CF81E0F2CF8A
:1057F0005058BB27AA270ED012C203D230F008D2CD
:1058000020F031F49F3F11F41EF4F8C10EF4E0953E
:10581000E7FBC5C1E92F14D280F3BA1762077307FB
:105820008407950718F071F49EF543C20EF4E095D5
:105830000B2EBA2FA02D0B01B90190010C01CA014A
:10584000A0011124FF27591B99F0593F50F4503EF5
:1058500068F11A16F040A22F232F342F4427585FE7
:10586000F3CF469537952795A795F0405395C9F7FF
:105870007EF41F16BA0B620B730B840BBAF09150B7
:10588000A1F0FF0FBB1F661F771F881FC2F70EC056
:10589000BA0F621F731F841F48F487957795679529
:1058A000B795F7959E3F08F0B3CF9395880F08F012
:1058B0009927EE0F979587950895E4D180F09F374B
:1058C00040F491110EF4F6C160E070E080E89FE3CF
:1058D000089526F01B16611D711D811D66C180C1D2
:1058E0003AD108F481E008950CD099C191D140F0EB
:1058F00088D130F021F45F3F19F051C15111DAC164
:105900007DC19ED198F39923C9F35523B1F3951B1B
:10591000550BBB27AA2762177307840738F09F5FD0
:105920005F4F220F331F441FAA1FA9F333D00E2E3F
:105930003AF0E0E830D091505040E695001CCAF7AC
:1059400029D0FE2F27D0660F771F881FBB1F261771
:1059500037074807AB07B0E809F0BB0B802DBF0144
:10596000FF2793585F4F2AF09E3F510568F017C1FB
:10597000A1C15F3FECF3983EDCF386957795679580
:10598000B795F7959F5FC9F7880F911D96958795F5
:1059900097F90895E1E0660F771F881FBB1F621714
:1059A00073078407BA0720F0621B730B840BBA0BD2
:1059B000EE1F88F7E095089504D06894B1117AC17C
:1059C000089546D188F09F5790F0B92F9927B75185
:1059D000A0F0D1F0660F771F881F991F1AF0BA95B3
:1059E000C9F712C0B13081F064D1B1E0089561C14E
:1059F000672F782F8827B85F39F0B93FCCF38695A9
:105A000077956795B395D9F73EF490958095709505
:105A100061957F4F8F4F9F4F0895E89409C097FB82
:105A20003EF490958095709561957F4F8F4F9F4F75
:105A30009923A9F0F92F96E9BB279395F6958795B9
:105A400077956795B795F111F8CFFAF4BB0F11F47C
:105A500060FF1BC06F5F7F4F8F4F9F4F16C0882323
:105A600011F096E911C0772321F09EE8872F762F59
:105A700005C0662371F096E8862F70E060E02AF09A
:105A80009A95660F771F881FDAF7880F9695879586
:105A900097F90895F7D080F09F3740F491110EF0F8
:105AA00009C160E070E080E89FEB089526F41B16C2
:105AB000611D711D811D79C093C0A3D018F011F034
:105AC000A7D038F49BC0F6C0E92FBAD0B0F3552365
:105AD000C9F3E7FB6217730784079507A8F199F3E9
